{
  "_format": "hh-sol-artifact-1",
  "contractName": "ImprovedRandomConsumer",
  "sourceName": "contracts/Consumer.sol",
  "abi": [
    {
      "inputs": [
        {
          "internalType": "address",
          "name": "oracleAddress",
          "type": "address"
        }
      ],
      "stateMutability": "nonpayable",
      "type": "constructor"
    },
    {
      "anonymous": false,
      "inputs": [
        {
          "indexed": true,
          "internalType": "uint256",
          "name": "requestId",
          "type": "uint256"
        },
        {
          "indexed": false,
          "internalType": "bytes32[]",
          "name": "randomness",
          "type": "bytes32[]"
        }
      ],
      "name": "RandomnessFulfilled",
      "type": "event"
    },
    {
      "anonymous": false,
      "inputs": [
        {
          "indexed": true,
          "internalType": "uint256",
          "name": "requestId",
          "type": "uint256"
        },
        {
          "indexed": true,
          "internalType": "address",
          "name": "requester",
          "type": "address"
        },
        {
          "indexed": false,
          "internalType": "uint256",
          "name": "words",
          "type": "uint256"
        }
      ],
      "name": "RandomnessRequested",
      "type": "event"
    },
    {
      "inputs": [
        {
          "internalType": "uint256",
          "name": "requestId",
          "type": "uint256"
        },
        {
          "internalType": "bytes32[]",
          "name": "outputs",
          "type": "bytes32[]"
        }
      ],
      "name": "fulfillRandomness",
      "outputs": [],
      "stateMutability": "nonpayable",
      "type": "function"
    },
    {
      "inputs": [
        {
          "internalType": "uint256",
          "name": "requestId",
          "type": "uint256"
        }
      ],
      "name": "getRandomness",
      "outputs": [
        {
          "internalType": "bytes32[]",
          "name": "",
          "type": "bytes32[]"
        }
      ],
      "stateMutability": "view",
      "type": "function"
    },
    {
      "inputs": [
        {
          "internalType": "uint256",
          "name": "requestId",
          "type": "uint256"
        }
      ],
      "name": "isFulfilled",
      "outputs": [
        {
          "internalType": "bool",
          "name": "",
          "type": "bool"
        }
      ],
      "stateMutability": "view",
      "type": "function"
    },
    {
      "inputs": [],
      "name": "oracle",
      "outputs": [
        {
          "internalType": "address",
          "name": "",
          "type": "address"
        }
      ],
      "stateMutability": "view",
      "type": "function"
    },
    {
      "inputs": [
        {
          "internalType": "uint256",
          "name": "words",
          "type": "uint256"
        }
      ],
      "name": "requestMyRandomness",
      "outputs": [
        {
          "internalType": "uint256",
          "name": "requestId",
          "type": "uint256"
        }
      ],
      "stateMutability": "payable",
      "type": "function"
    },
    {
      "inputs": [
        {
          "internalType": "uint256",
          "name": "",
          "type": "uint256"
        }
      ],
      "name": "requests",
      "outputs": [
        {
          "internalType": "address",
          "name": "requester",
          "type": "address"
        },
        {
          "internalType": "uint256",
          "name": "words",
          "type": "uint256"
        },
        {
          "internalType": "bool",
          "name": "fulfilled",
          "type": "bool"
        }
      ],
      "stateMutability": "view",
      "type": "function"
    }
  ],
  "bytecode": "0x60a060405234801561001057600080fd5b5060405161094138038061094183398101604081905261002f9161009a565b6001600160a01b0381166100895760405162461bcd60e51b815260206004820152601660248201527f496e76616c6964206f7261636c65206164647265737300000000000000000000604482015260640160405180910390fd5b6001600160a01b03166080526100ca565b6000602082840312156100ac57600080fd5b81516001600160a01b03811681146100c357600080fd5b9392505050565b60805161084f6100f26000396000818160e101528181610311015261045a015261084f6000f3fe6080604052600436106100555760003560e01c8063091490201461005a578063453f4f62146100a25780637dc0d1d0146100cf57806381d12c581461011b578063cb5286ff1461018b578063db5b0edb146101ac575b600080fd5b34801561006657600080fd5b5061008d6100753660046106b5565b60009081526020819052604090206002015460ff1690565b60405190151581526020015b60405180910390f35b3480156100ae57600080fd5b506100c26100bd3660046106b5565b6101ce565b60405161009991906106ce565b3480156100db57600080fd5b506101037f000000000000000000000000000000000000000000000000000000000000000081565b6040516001600160a01b039091168152602001610099565b34801561012757600080fd5b506101646101363660046106b5565b6000602081905290815260409020805460018201546002909201546001600160a01b03909116919060ff1683565b604080516001600160a01b0390941684526020840192909252151590820152606001610099565b61019e6101993660046106b5565b610298565b604051908152602001610099565b3480156101b857600080fd5b506101cc6101c7366004610727565b61044f565b005b60008181526020819052604090206002015460609060ff166102375760405162461bcd60e51b815260206004820152601b60248201527f52616e646f6d6e657373206e6f7420726563656976656420796574000000000060448201526064015b60405180910390fd5b600082815260208181526040918290206003018054835181840281018401909452808452909183018282801561028c57602002820191906000526020600020905b815481526020019060010190808311610278575b50505050509050919050565b60008082116102fb5760405162461bcd60e51b815260206004820152602960248201527f4e756d626572206f6620776f726473206d7573742062652067726561746572206044820152687468616e207a65726f60b81b606482015260840161022e565b604051637363ae1f60e01b8152600481018390527f00000000000000000000000000000000000000000000000000000000000000006001600160a01b031690637363ae1f90349060240160206040518083038185885af1158015610363573d6000803e3d6000fd5b50505050506040513d601f19601f820116820180604052508101906103889190610800565b6040805160808101825233815260208082018681526000838501818152855182815280850187526060860190815287835282855295909120845181546001600160a01b0319166001600160a01b03909116178155915160018301555160028201805460ff19169115159190911790559251805194955091936104109260038501920190610655565b505060405183815233915082907f9cbe10499828304338b5191b737406d750036395ab0a1015c8c14b2f6e1046d59060200160405180910390a3919050565b336001600160a01b037f000000000000000000000000000000000000000000000000000000000000000016146104d65760405162461bcd60e51b815260206004820152602660248201527f4f6e6c7920746865206f7261636c652063616e2066756c66696c6c2072616e646044820152656f6d6e65737360d01b606482015260840161022e565b6000828152602081905260409020546001600160a01b031661052f5760405162461bcd60e51b8152602060048201526012602482015271125b9d985b1a59081c995c5d595cdd08125160721b604482015260640161022e565b60008281526020819052604090206002015460ff16156105855760405162461bcd60e51b8152602060048201526011602482015270105b1c9958591e48199d5b199a5b1b1959607a1b604482015260640161022e565b6000828152602081905260409020600101548151146105e65760405162461bcd60e51b815260206004820181905260248201527f496e636f7272656374206e756d626572206f662072616e646f6d20776f726473604482015260640161022e565b60008281526020818152604090912060028101805460ff19166001179055825161061892600390920191840190610655565b50817f973e9eab9ea8bbfced10d76104e921921fa08dfe4ad9a9f5354b6798b2376b838260405161064991906106ce565b60405180910390a25050565b828054828255906000526020600020908101928215610690579160200282015b82811115610690578251825591602001919060010190610675565b5061069c9291506106a0565b5090565b5b8082111561069c57600081556001016106a1565b6000602082840312156106c757600080fd5b5035919050565b602080825282518282018190526000918401906040840190835b818110156107065783518352602093840193909201916001016106e8565b509095945050505050565b634e487b7160e01b600052604160045260246000fd5b6000806040838503121561073a57600080fd5b82359150602083013567ffffffffffffffff81111561075857600080fd5b8301601f8101851361076957600080fd5b803567ffffffffffffffff81111561078357610783610711565b8060051b604051601f19603f830116810181811067ffffffffffffffff821117156107b0576107b0610711565b6040529182526020818401810192908101888411156107ce57600080fd5b6020850194505b838510156107f1578435808252602095860195909350016107d5565b50809450505050509250929050565b60006020828403121561081257600080fd5b505191905056fea26469706673582212201404370cdda7238e55f6d00c48b7bddd2f812a5585ad4a4a473699e8cf0eb1fa64736f6c634300081c0033",
  "linkReferences": {},
  "deployedLinkReferences": {}
}