{
  "_format": "hh-sol-artifact-1",
  "contractName": "VRFOracleWithCallback",
  "sourceName": "contracts/Oracle.sol",
  "abi": [
    {
      "inputs": [
        {
          "internalType": "bytes",
          "name": "_vrfPublicKey",
          "type": "bytes"
        }
      ],
      "stateMutability": "nonpayable",
      "type": "constructor"
    },
    {
      "anonymous": false,
      "inputs": [
        {
          "indexed": true,
          "internalType": "uint256",
          "name": "requestId",
          "type": "uint256"
        },
        {
          "indexed": false,
          "internalType": "bytes32[]",
          "name": "outputs",
          "type": "bytes32[]"
        }
      ],
      "name": "RandomnessFulfilled",
      "type": "event"
    },
    {
      "anonymous": false,
      "inputs": [
        {
          "indexed": true,
          "internalType": "uint256",
          "name": "requestId",
          "type": "uint256"
        },
        {
          "indexed": true,
          "internalType": "address",
          "name": "requester",
          "type": "address"
        },
        {
          "indexed": false,
          "internalType": "uint256",
          "name": "words",
          "type": "uint256"
        },
        {
          "indexed": false,
          "internalType": "uint256",
          "name": "fee",
          "type": "uint256"
        },
        {
          "indexed": false,
          "internalType": "uint256",
          "name": "deadline",
          "type": "uint256"
        },
        {
          "indexed": false,
          "internalType": "uint8",
          "name": "priority",
          "type": "uint8"
        }
      ],
      "name": "RandomnessRequested",
      "type": "event"
    },
    {
      "inputs": [
        {
          "internalType": "uint256",
          "name": "requestId",
          "type": "uint256"
        },
        {
          "internalType": "bytes32[]",
          "name": "outputs",
          "type": "bytes32[]"
        },
        {
          "internalType": "bytes",
          "name": "proof",
          "type": "bytes"
        }
      ],
      "name": "fulfillRandomness",
      "outputs": [],
      "stateMutability": "nonpayable",
      "type": "function"
    },
    {
      "inputs": [
        {
          "internalType": "uint256",
          "name": "words",
          "type": "uint256"
        },
        {
          "internalType": "uint256",
          "name": "fee",
          "type": "uint256"
        },
        {
          "internalType": "uint256",
          "name": "deadline",
          "type": "uint256"
        },
        {
          "internalType": "uint8",
          "name": "priority",
          "type": "uint8"
        }
      ],
      "name": "requestRandomness",
      "outputs": [
        {
          "internalType": "uint256",
          "name": "requestId",
          "type": "uint256"
        }
      ],
      "stateMutability": "payable",
      "type": "function"
    },
    {
      "inputs": [
        {
          "internalType": "uint256",
          "name": "",
          "type": "uint256"
        }
      ],
      "name": "requests",
      "outputs": [
        {
          "internalType": "address",
          "name": "requester",
          "type": "address"
        },
        {
          "internalType": "uint256",
          "name": "words",
          "type": "uint256"
        },
        {
          "internalType": "bool",
          "name": "fulfilled",
          "type": "bool"
        },
        {
          "internalType": "uint256",
          "name": "feePaid",
          "type": "uint256"
        },
        {
          "internalType": "uint256",
          "name": "deadline",
          "type": "uint256"
        },
        {
          "internalType": "uint8",
          "name": "priority",
          "type": "uint8"
        }
      ],
      "stateMutability": "view",
      "type": "function"
    },
    {
      "inputs": [],
      "name": "vrfPublicKey",
      "outputs": [
        {
          "internalType": "bytes",
          "name": "",
          "type": "bytes"
        }
      ],
      "stateMutability": "view",
      "type": "function"
    }
  ],
  "bytecode": "0x608060405234801561001057600080fd5b5060405161105538038061105583398101604081905261002f91610058565b600061003b82826101ad565b505061026b565b634e487b7160e01b600052604160045260246000fd5b60006020828403121561006a57600080fd5b81516001600160401b0381111561008057600080fd5b8201601f8101841361009157600080fd5b80516001600160401b038111156100aa576100aa610042565b604051601f8201601f19908116603f011681016001600160401b03811182821017156100d8576100d8610042565b6040528181528282016020018610156100f057600080fd5b60005b8281101561010f576020818501810151838301820152016100f3565b50600091810160200191909152949350505050565b600181811c9082168061013857607f821691505b60208210810361015857634e487b7160e01b600052602260045260246000fd5b50919050565b601f8211156101a857806000526020600020601f840160051c810160208510156101855750805b601f840160051c820191505b818110156101a55760008155600101610191565b50505b505050565b81516001600160401b038111156101c6576101c6610042565b6101da816101d48454610124565b8461015e565b6020601f82116001811461020e57600083156101f65750848201515b600019600385901b1c1916600184901b1784556101a5565b600084815260208120601f198516915b8281101561023e578785015182556020948501946001909201910161021e565b508482101561025c5786840151600019600387901b60f8161c191681555b50505050600190811b01905550565b610ddb8061027a6000396000f3fe60806040526004361061003f5760003560e01c8063522fd3ec1461004457806381d12c581461006f5780639b09558d14610111578063b690f13714610132575b600080fd5b34801561005057600080fd5b50610059610154565b60405161006691906109e0565b60405180910390f35b34801561007b57600080fd5b506100d161008a366004610a13565b60026020819052600091825260409091208054600182015492820154600383015460048401546005909401546001600160a01b03909316949360ff92831693919290911686565b604080516001600160a01b0390971687526020870195909552921515938501939093526060840152608083019190915260ff1660a082015260c001610066565b61012461011f366004610a2c565b6101e2565b604051908152602001610066565b34801561013e57600080fd5b5061015261014d366004610b2a565b610381565b005b6000805461016190610c0d565b80601f016020809104026020016040519081016040528092919081815260200182805461018d90610c0d565b80156101da5780601f106101af576101008083540402835291602001916101da565b820191906000526020600020905b8154815290600101906020018083116101bd57829003601f168201915b505050505081565b60008334101561022c5760405162461bcd60e51b815260206004820152601060248201526f496e73756666696369656e742066656560801b60448201526064015b60405180910390fd5b6000851161027c5760405162461bcd60e51b815260206004820152601f60248201527f576f726473206d7573742062652067726561746572207468616e207a65726f006044820152606401610223565b60016000815461028b90610c5d565b91829055506040805160c0810182523380825260208083018a8152600084860181815260608087018d815260808089018e815260ff8e811660a08c018181528e89526002808c52988e90209c518d546001600160a01b0319166001600160a01b03909116178d55985160018d01559551968b01805460ff19908116981515989098179055925160038b01555160048a015594516005909801805490941697169690961790915585518c81529283018b90529482018990529281019390935292935083917fd817ea8b72822002bf2e7611b1e28b53e649fb89b0acac8cb3151784eaf01ee9910160405180910390a3949350505050565b60008381526002602081905260409091209081015460ff16156103da5760405162461bcd60e51b8152602060048201526011602482015270105b1c9958591e48199d5b199a5b1b1959607a1b6044820152606401610223565b80600401544211156104205760405162461bcd60e51b815260206004820152600f60248201526e14995c5d595cdd08195e1c1a5c9959608a1b6044820152606401610223565b6005810154600160ff909116101561046d5760405162461bcd60e51b815260206004820152601060248201526f5072696f7269747920746f6f206c6f7760801b6044820152606401610223565b80546001600160a01b03166104b85760405162461bcd60e51b8152602060048201526011602482015270125b9d985b1a59081c995c5d595cdd1259607a1b6044820152606401610223565b806001015483511461050c5760405162461bcd60e51b815260206004820152601b60248201527f496e636f7272656374206e756d626572206f66206f75747075747300000000006044820152606401610223565b60005b8351811015610612576105ca6000805461052890610c0d565b80601f016020809104026020016040519081016040528092919081815260200182805461055490610c0d565b80156105a15780601f10610576576101008083540402835291602001916105a1565b820191906000526020600020905b81548152906001019060200180831161058457829003601f168201915b50505050508260001b8684815181106105bc576105bc610c76565b6020026020010151866106c8565b61060a5760405162461bcd60e51b815260206004820152601160248201527024b73b30b634b2102b292310383937b7b360791b6044820152606401610223565b60010161050f565b5060028101805460ff1916600117905560405184907f973e9eab9ea8bbfced10d76104e921921fa08dfe4ad9a9f5354b6798b2376b8390610654908690610cc8565b60405180910390a2805460405163db5b0edb60e01b81526001600160a01b0390911690819063db5b0edb9061068f9088908890600401610ce2565b600060405180830381600087803b1580156106a957600080fd5b505af11580156106bd573d6000803e3d6000fd5b505050505050505050565b60006106d6858585856106e1565b90505b949350505050565b6000815160601461072b5760405162461bcd60e51b8152602060048201526014602482015273092dcecc2d8d2c840e0e4dedecc40d8cadccee8d60631b6044820152606401610223565b600061073a83600060206108d3565b9050600061075261074d856020806108d3565b61096a565b9050600061076661074d86604060206108d3565b905060006002898960405160200161077f929190610cfb565b60408051601f198184030181529082905261079991610d1d565b602060405180830381855afa1580156107b6573d6000803e3d6000fd5b5050506040513d601f19601f820116820180604052508101906107d99190610d39565b9050600060028a8684866040516020016107f69493929190610d52565b60408051601f198184030181529082905261081091610d1d565b602060405180830381855afa15801561082d573d6000803e3d6000fd5b5050506040513d601f19601f820116820180604052508101906108509190610d39565b905083811415806108b0575060028560405161086c9190610d1d565b602060405180830381855afa158015610889573d6000803e3d6000fd5b5050506040513d601f19601f820116820180604052508101906108ac9190610d39565b8814155b156108c3576000955050505050506106d9565b5060019998505050505050505050565b60606108df8284610d8c565b845110156109265760405162461bcd60e51b8152602060048201526014602482015273092dcecc2d8d2c840e6d8d2c6ca40d8cadccee8d60631b6044820152606401610223565b604051601f831680820180850187830187015b81831015610951578051835260209283019201610939565b5050848352601f01601f19166040525090509392505050565b600081516020146109b45760405162461bcd60e51b8152602060048201526014602482015273092dcecc2d8d2c840c4f2e8cae640d8cadccee8d60631b6044820152606401610223565b506020015190565b60005b838110156109d75781810151838201526020016109bf565b50506000910152565b60208152600082518060208401526109ff8160408501602087016109bc565b601f01601f19169190910160400192915050565b600060208284031215610a2557600080fd5b5035919050565b60008060008060808587031215610a4257600080fd5b843593506020850135925060408501359150606085013560ff81168114610a6857600080fd5b939692955090935050565b634e487b7160e01b600052604160045260246000fd5b604051601f8201601f1916810167ffffffffffffffff81118282101715610ab257610ab2610a73565b604052919050565b600082601f830112610acb57600080fd5b813567ffffffffffffffff811115610ae557610ae5610a73565b610af8601f8201601f1916602001610a89565b818152846020838601011115610b0d57600080fd5b816020850160208301376000918101602001919091529392505050565b600080600060608486031215610b3f57600080fd5b83359250602084013567ffffffffffffffff811115610b5d57600080fd5b8401601f81018613610b6e57600080fd5b803567ffffffffffffffff811115610b8857610b88610a73565b8060051b610b9860208201610a89565b91825260208184018101929081019089841115610bb457600080fd5b6020850194505b83851015610bd6578435825260209485019490910190610bbb565b95505050506040850135905067ffffffffffffffff811115610bf757600080fd5b610c0386828701610aba565b9150509250925092565b600181811c90821680610c2157607f821691505b602082108103610c4157634e487b7160e01b600052602260045260246000fd5b50919050565b634e487b7160e01b600052601160045260246000fd5b600060018201610c6f57610c6f610c47565b5060010190565b634e487b7160e01b600052603260045260246000fd5b600081518084526020840193506020830160005b82811015610cbe578151865260209586019590910190600101610ca0565b5093949350505050565b602081526000610cdb6020830184610c8c565b9392505050565b8281526040602082015260006106d96040830184610c8c565b60008351610d0d8184602088016109bc565b9190910191825250602001919050565b60008251610d2f8184602087016109bc565b9190910192915050565b600060208284031215610d4b57600080fd5b5051919050565b60008551610d64818460208a016109bc565b855190830190610d78818360208a016109bc565b019384525050602082015260400192915050565b80820180821115610d9f57610d9f610c47565b9291505056fea2646970667358221220d24c244951ae81f42cd13e2d621f30db8cc2314b2f1ca2ac4daecbd018fe81ac64736f6c634300081c0033",
  "linkReferences": {},
  "deployedLinkReferences": {}
}